:020000040800F2
:10000000000400209D010008050300088302000889
:1000100001030008E5010008850400080000000055
:10002000000000000000000000000000290300089C
:10003000E901000800000000070300081904000897
:10004000B7010008B7010008B7010008B7010008B0
:10005000B7010008B7010008B7010008B7010008A0
:10006000B7010008B7010008B7010008B701000890
:10007000B7010008B7010008B7010008B701000880
:10008000B7010008B7010008B7010008B701000870
:10009000B7010008B7010008B7010008B701000860
:1000A000B7010008B7010008B7010008B701000850
:1000B000B7010008B7010008B7010008B701000840
:1000C000B7010008B7010008B7010008B701000830
:1000D000B7010008B7010008B7010008B701000820
:1000E000B7010008B7010008B7010008B701000810
:1000F000B7010008B7010008B7010008B701000800
:10010000B7010008B7010008B7010008B7010008EF
:10011000B7010008B7010008B7010008B7010008DF
:10012000B7010008B7010008B7010008B7010008CF
:10013000B7010008B7010008B7010008B7010008BF
:10014000B7010008B7010008B7010008B7010008AF
:10015000B7010008B7010008B7010008B70100089F
:10016000B7010008B7010008B7010008B70100088F
:10017000B7010008B7010008B7010008B70100087F
:10018000B7010008B7010008DFF80CD000F018F83C
:1001900000480047B10400080004002006488047DA
:1001A00006480047FEE7FEE7FEE7FEE7FEE7FEE75C
:1001B000FEE7FEE7FEE7FEE71D04000889010008F0
:1001C000064C074D06E0E06840F0010394E80700A4
:1001D00098471034AC42F6D3FFF7DAFF2005000849
:1001E0003005000800BFFEE77047F0B50A46002161
:1001F0000023002400BF3DE0012505FA01F3156846
:1002000005EA03049C4234D105684F000326BE4032
:10021000B543056015794E00B54006683543056065
:100220001579012D02D01579022D16D185684F0060
:100230000326BE40B543856055794E00B5408668BB
:1002400035438560456801268E40B5434560456865
:1002500096798E40B6B235434560C5684F00032697
:10026000BE40B543C560D5794E00B540C66835433C
:10027000C560491C1029BFD3F0BD4183704701837D
:10028000704700BFFEE700001CB50121202000F0F0
:100290003BF84020009001208DF8040000208DF8EC
:1002A00005008DF8060001208DF807006946134807
:1002B000FFF79BFF8020009001208DF804000020B4
:1002C0008DF805008DF8060001208DF807006946BD
:1002D0000A48FFF78AFF4FF48070009001208DF8E4
:1002E000040000208DF805008DF8060001208DF82F
:1002F000070069460148FFF778FF1CBD0014024063
:1003000000BFFEE77047704729B1064A12680243F2
:10031000044B1A6004E0034A12688243014B1A60DE
:100320007047000030380240704700000CB50020D4
:10033000019000903448006840F4803032490860F1
:1003400000BF3148006800F4003000900198401C64
:100350000190009818B90198B0F5A04FF1D12A4842
:10036000006800F4003010B10120009001E000208E
:1003700000900098012846D123484030006840F0A2
:1003800080502149403108602048006840F44040D6
:100390001E4908601C48083000681B490831086085
:1003A0000846006840F4004008600846006840F4D1
:1003B000A05008601648091F0860081F006840F038
:1003C0008070091F086000BF0F48006800F00070CF
:1003D0000028F9D040F205700E4908600A4808303C
:1003E000006820F0030008490831086008460068EA
:1003F00040F00200086000BF03480830006800F0C9
:100400000C000828F8D10CBD0038024000700040F4
:1004100019544007003C02407047000010B51548D1
:10042000006840F47000134908601348006840F009
:1004300001001149086000200F49083108600E488A
:1004400000680E4908400C4908600D48091D086005
:10045000081F006820F48020091F0860002006495A
:100460000C310860FFF762FF4FF0006001498039EE
:10047000086010BD88ED00E000380240FFFFF6FE86
:100480001030002400BFFEE702E008C8121F08C1B8
:10049000002AFAD170477047002001E001C1121F05
:1004A000002AFBD1704700E0401E0028FCD17047B5
:1004B000FFF7EAFE31E040211848FFF7DEFE6FF05B
:1004C0007F40FFF7F0FF40211448FFF7D8FE6FF0A0
:1004D0007F40FFF7E8FF80211048FFF7CEFE6FF066
:1004E0007F40FFF7E0FF80210C48FFF7C8FE6FF068
:1004F0007F40FFF7D8FF4FF480710848FFF7BDFE3B
:100500006FF07F40FFF7CFFF4FF480710348FFF794
:10051000B6FE6FF07F40FFF7C6FFCCE70014024045
:1005200030050008000000200004000098040008C6
:040000050800018965
:00000001FF
