:020000040800F2
:10000000000400209D010008A103000899020008D7
:100010009D030008E501000821050008000000001C
:10002000000000000000000000000000C503000800
:10003000E901000800000000A3030008B50400085F
:10004000B7010008B7010008B7010008B7010008B0
:10005000B7010008B7010008B7010008B7010008A0
:10006000B7010008B7010008B7010008B701000890
:10007000B7010008B7010008B7010008B701000880
:10008000B7010008B7010008B7010008B701000870
:10009000B7010008B7010008B7010008B701000860
:1000A000B7010008B7010008B7010008B701000850
:1000B000B7010008B7010008B7010008B701000840
:1000C000B7010008B7010008B7010008B701000830
:1000D000B7010008B7010008B7010008B701000820
:1000E000B7010008B7010008B7010008B701000810
:1000F000B7010008B7010008B7010008B701000800
:10010000B7010008B7010008B7010008B7010008EF
:10011000B7010008B7010008B7010008B7010008DF
:10012000B7010008B7010008B7010008B7010008CF
:10013000B7010008B7010008B7010008B7010008BF
:10014000B7010008B7010008B7010008B7010008AF
:10015000B7010008B7010008B7010008B70100089F
:10016000B7010008B7010008B7010008B70100088F
:10017000B7010008B7010008B7010008B70100087F
:10018000B7010008B7010008DFF80CD000F018F83C
:100190000048004745050008000400200648804745
:1001A00006480047FEE7FEE7FEE7FEE7FEE7FEE75C
:1001B000FEE7FEE7FEE7FEE7B90400088901000854
:1001C000064C074D06E0E06840F0010394E80700A4
:1001D00098471034AC42F6D3FFF7DAFF88050008E1
:1001E0009805000800BFFEE77047F0B50A460021F9
:1001F0000023002400BF3DE0012505FA01F3156846
:1002000005EA03049C4234D105684F000326BE4032
:10021000B543056015794E00B54006683543056065
:100220001579012D02D01579022D16D185684F0060
:100230000326BE40B543856055794E00B5408668BB
:1002400035438560456801268E40B5434560456865
:1002500096798E40B6B235434560C5684F00032697
:10026000BE40B543C560D5794E00B540C66835433C
:10027000C560491C1029BFD3F0BD02460020136998
:100280000B400BB1012000E0002070470183704754
:1002900042694A404261704700BFFEE71CB5012138
:1002A000052000F07FF80120009000208DF8040068
:1002B0008DF8070069460848FFF797FF4FF4005094
:1002C000009000208DF804008DF80700694603486F
:1002D000FFF78BFF1CBD0000000002400008024039
:1002E00070B504460D4629462046FFF7C6FF012893
:1002F00008D100BF29462046FFF7BFFF0128F9D0EB
:10030000012070BD0020FCE71CB50121202000F079
:1003100049F84020009001208DF8040000208DF85D
:1003200005008DF8060001208DF8070069461A487F
:10033000FFF75BFF8020009001208DF80400002073
:100340008DF805008DF8060001208DF8070069463C
:100350001148FFF74AFF4FF48070009001208DF89C
:10036000040000208DF805008DF8060001208DF8AE
:10037000070069460848FFF738FF40210648FFF7A5
:1003800085FF80210448FFF781FF4FF48071024808
:10039000FFF77CFF1CBD00000014024000BFFEE719
:1003A0007047704729B1064A12680243044B1A602D
:1003B00004E0034A12688243014B1A607047000050
:1003C00030380240704700000CB5002001900090CA
:1003D0003448006840F480303249086000BF31483A
:1003E000006800F4003000900198401C01900098D3
:1003F00018B90198B0F5A04FF1D12A48006800F46F
:10040000003010B10120009001E000200090009821
:10041000012846D123484030006840F080502149EF
:10042000403108602048006840F440401E490860A0
:100430001C48083000681B490831086008460068FD
:1004400040F4004008600846006840F4A05008608E
:100450001648091F0860081F006840F08070091FD7
:10046000086000BF0F48006800F000700028F9D055
:1004700040F205700E4908600A480830006820F014
:1004800003000849083108600846006840F002008F
:10049000086000BF03480830006800F00C0008281E
:1004A000F8D10CBD003802400070004019544007DC
:1004B000003C02407047000010B51548006840F449
:1004C0007000134908601348006840F001001149AA
:1004D000086000200F49083108600E4800680E4986
:1004E00008400C4908600D48091D0860081F006895
:1004F00020F48020091F0860002006490C310860A4
:10050000FFF762FF4FF0006001498039086010BDBD
:1005100088ED00E000380240FFFFF6FE10300024B6
:1005200000BFFEE702E008C8121F08C1002AFAD186
:1005300070477047002001E001C1121F002AFBD163
:1005400070470000FFF7E0FEFFF7A8FE14E001216E
:100550000A48FFF7C5FE012803D140210848FFF7EC
:1005600097FE4FF400510748FFF7BAFE012803D168
:1005700080210348FFF78CFEE9E7000000000240FD
:100580000014024000080240980500080000002006
:0805900000040000340500081E
:040000050800018965
:00000001FF
